:020000040800F2
:1000000000000220C94C0008694400086B44000845
:100010006D4400086F4400087144000800000000AF
:100020000000000000000000000000007344000811
:100030007544000800000000774400087944000877
:10004000194D0008194D0008194D0008194D0008F8
:10005000194D0008194D0008194D00087D4400088D
:10006000194D0008194D0008194D0008194D0008D8
:10007000194D0008194D0008194D0008194D0008C8
:10008000194D0008194D0008194D0008194D0008B8
:10009000194D0008194D0008194D0008194D0008A8
:1000A000194D0008194D0008194D0008194D000898
:1000B000194D0008194D0008194D0008194D000888
:1000C000194D0008194D0008194D0008194D000878
:1000D000194D0008194D0008194D00088544000805
:1000E000194D0008194D0008194D0008194D000858
:1000F000194D0008194D0008194D0008194D000848
:10010000194D0008194D0008194D0008194D000837
:10011000194D0008194D0008194D0008194D000827
:10012000194D0008194D0008194D0008194D000817
:10013000194D0008194D0008194D0008194D000807
:10014000194D0008194D0008194D00089144000888
:10015000194D0008194D0008194D0008194D0008E7
:10016000194D0008194D0008194D0008194D0008D7
:10017000194D0008194D0008194D00080000000035
:08018000194D0008194D00089B
:1001880010B5054C237833B9044B13B10448AFF3C9
:1001980000800123237010BDAC0000200000000087
:1001A8001C4F000808B5034B1BB103490348AFF3C4
:1001B800008008BD00000000B00000201C4F0008AF
:1001C80053B94AB9002908BF00281CBF4FF0FF31B6
:1001D8004FF0FF3000F07AB9ADF1080C6DE904CEAC
:1001E80000F006F8DDF804E0DDE9022304B070470A
:1001F8002DE9F0478C460D460446089E002B51D148
:100208008A4217466DD9B2FA82FEBEF1000F0BD0B2
:10021800CEF1200C01FA0EF520FA0CFC02FA0EF7CA
:100228004CEA050C00FA0EF44FEA174A250CBCFB01
:10023800FAF81FFA87F90AFB18CC45EA0C4508FBBF
:1002480009F3AB420AD9ED1908F1FF3280F0238196
:10025800AB4240F22081A8F102083D44ED1AA4B255
:10026800B5FBFAF00AFB105544EA054400FB09F90E
:10027800A14509D9E41900F1FF3380F00A81A145AD
:1002880040F2078102383C44A4EB090440EA0840E4
:100298000021002E61D024FA0EF40023346073602C
:1002A800BDE8F0878B4207D9002E54D0002186E89C
:1002B80021000846BDE8F087B3FA83F1002940F031
:1002C8008E80AB4202D3824200F2FA80841A65EB38
:1002D80003050120AC46002E3FD086E81010BDE88B
:1002E800F08712B90127B7FBF2F7B7FA87FEBEF11C
:1002F800000F34D1EB1B3A0C1FFA87FC0121B3FB2A
:10030800F2F8250C02FB183345EA03450CFB08F309
:10031800AB4207D9ED1908F1FF3002D2AB4200F227
:10032800D1808046ED1AA3B2B5FBF2F002FB10555E
:1003380043EA05440CFB00FCA44507D9E41900F185
:10034800FF3302D2A44500F2B8801846A4EB0C048F
:1003580040EA08409DE731463046BDE8F087CEF1D7
:10036800200405FA0EF307FA0EF720FA04F83A0CFF
:1003780025FA04F448EA0308B4FBF2F14FEA1845F9
:1003880002FB11441FFA87FC45EA044501FB0CF304
:10039800AB4200FA0EF409D9ED1901F1FF3080F0F3
:1003A8008A80AB4240F2878002393D44EB1A1FFA3B
:1003B80088F5B3FBF2F002FB103345EA034500FB76
:1003C8000CF3AB4207D9ED1900F1FF386FD2AB42FD
:1003D8006DD902383D44EB1A40EA01418FE7C1F17B
:1003E800200722FA07F88B4005FA01F448EA0303CC
:1003F80020FA07FE4FEA134CFD404EEA040EB5FB07
:10040800FCF94FEA1E440CFB19551FFA83F844EA1D
:10041800054509FB08F4AC4202FA01F200FA01FAB8
:1004280008D9ED1809F1FF3043D2AC4241D9A9F1FE
:1004380002091D442D1B1FFA8EFEB5FBFCF00CFBB8
:1004480010554EEA054400FB08F8A04507D9E41802
:1004580000F1FF3529D2A04527D902381C4440EACB
:100468000940A4EB0804A0FB02894C45C6464D464A
:1004780015D312D056B1BAEB0E0364EB050404FA97
:1004880007F7CB401F43CC40376074600021BDE8BC
:10049800F0871846F8E69046E0E6C245EAD2B8EB9F
:1004A800020E69EB03050138E4E72846D7E7404622
:1004B80091E78146BEE7014678E702383C4445E7C4
:1004C800084608E7A8F102083D442BE7704700BF3B
:1004D80038B50E4A0E4B054618784FF47A73B3FBBD
:1004E800F0F31068B0FBF3F000F0AAF8044658B92E
:1004F8000F2D09D8024629464FF0FF3000F05EF86C
:10050800044B20461D6038BD012038BD4400002042
:10051800000000200400002008B50B4B1A6842F4C4
:1005280000721A601A6842F480621A601A6842F40B
:1005380080721A60032000F02FF80020FFF7C8FF30
:1005480003F06EFF002008BD003C0240034A044B44
:1005580011681B780B441360704700BFDC00002053
:1005680000000020014B1868704700BFDC00002025
:1005780038B50446FFF7F6FF631C1CBF054B1B7814
:10058800054618BFE418FFF7EDFF401B8442FAD870
:1005980038BD00BF00000020074AD36823F4E06399
:1005A8001B041B0C43F0BF63000243F4003300F448
:1005B800E0600343D360704700ED00E0174B30B5AF
:1005C800DC68C4F30224C4F10703251D042B28BFEB
:1005D8000423062D4FF0010505FA03F303F1FF3359
:1005E8008CBF033C00241940A14005FA04F4013CE7
:1005F8002240002842EA01024FEA0212ADBF00F190
:10060800604000F00F00064B00F56140B5BFD2B264
:10061800D2B21A5480F8002330BD00BF00ED00E0CC
:1006280014ED00E0002808DB4209012300F01F0058
:1006380003FA00F0014B43F82200704700E100E0A4
:100648000138B0F1807F0AD2064B074A5860F02182
:1006580082F823100020072298601A607047012052
:10066800704700BF10E000E000ED00E090F8353082
:10067800022B03D0802343650120704702680523BD
:1006880080F83530136823F00103136000207047A9
:100698002DE9F04F85B00B68DFF8AC81684ADFF8C8
:1006A800AC91019300230124019D9C402540AC425C
:1006B80040F0B0804C6824F0100C0CF1FF36012E8D
:1006C8004FEA430E12D88768032606FA0EF627EA81
:1006D8000607CE6806FA0EF63E4386604768C4F3FE
:1006E800001627EA05079E403E4346600326C76872
:1006F80006FA0EF6F64307EA060A8F6807FA0EF7B7
:1007080047EA0A07BCF1020FC76016D14FEAD30ABD
:1007180000EB8A0A03F0070BDAF820704FEA8B0B1C
:100728004FF00F0C0CFA0BFC27EA0C0C0F6907FAB8
:100738000BF747EA0C07CAF8207007683E4004F038
:10074800030707FA0EFE4EEA06060660E60061D5C4
:100758004FF0000BCDF80CB0D8F84470394E47F480
:100768008047C8F84470D8F8447007F48047039766
:10077800039F23F0030707F1804707F59C3703F031
:10078800030CD7F808A04FEA8C0C4FF00F0E0EFAA6
:100798000CFEB0422AEA0E0E43D006F58066B0423F
:1007A80041D006F58066B0423FD006F58066B0427B
:1007B8003DD006F58066B0423BD048453BD006F5B3
:1007C8000066B04239D006F58066B04214BF0826EC
:1007D800072606FA0CF646EA0E06BE601668EF43D0
:1007E80014F4803F0CBF3E402E431660566814F444
:1007F800003F0CBF3E402E435660966814F4801F9D
:100808000CBF3E402E439660D668A40254BF3E40BB
:100818002E43D6600133102B7FF445AF05B0BDE8F9
:10082800F08F5E46D5E70126D3E70226D1E70326F7
:10083800CFE70426CDE70526CBE70626C9E700BFA4
:10084800003C014000000240003802400014024011
:100858000AB1816170470904FBE7000008B5044B41
:100868005969014202D0586103F05AFB08BD00BF24
:10087800003C01402DE9FF47044690F8B8029DF876
:1008880030709DF834E0BDF838C0012828D0282001
:1008980000FB01400125002612F0800F84F8B852B1
:1008A80002F07F0908BF354680F83D6080F838308F
:1008B80080F8391080F83FE080F83A9080F83B5093
:1008C80080F83C70A0F840C0CDF808C08DE88040A2
:1008D800206802F06FF984F8B86204B0BDE8F087C8
:1008E8000220FAE790F8B832012B10B5044609D077
:1008F800012380F8B832006802F0E6F9002084F895
:10090800B80210BD022010BD2DE9F04107468AB09B
:10091800002841D090F8B932046803F0FF021BB9EF
:1009280080F8B82204F0A0F8032387F8B932E36B03
:100938003C4613F4807354F8100B08BF3B6101F078
:10094800F5FF0FCC6D460FC50FCC0FC594E803001B
:1009580085E8030007F104083E4698E80E00386869
:1009680001F09EFF56F8100B012101F0E5FF0FCEB4
:100978006D460FC50FCE0FC594E8030085E8030048
:1009880098E80E00386802F095F8012387F8B93224
:1009980000200AB0BDE8F0810120FAE7F0B528246C
:1009A80004FB01049DF81470069EBDF81C5084F8E1
:1009B8003B2084F83F306FB90327022B84F842703C
:1009C8002BD0BB4229D0012B31D1282303FB0103B3
:1009D80000222AE04FF0020E84F842E0032B26D8CA
:1009E80001A454F823F000BF010A0008D309000845
:1009F800230A0008230A0008012F18D1BAB925B91B
:100A0800282303FB010383F85170282303FB010308
:100A180093F851204AB1022207E0282303FB01037F
:100A2800D2B993F85140002CF5D183F842202824FC
:100A380004FB0103002283F8391019465E649D64A3
:100A480083F85C20DA6483F85D203831027C006822
:100A5800BDE8F04002F09CB993F85020DAE700BFF7
:100A68002DE9F04F066887B00446304601F0C4FF10
:100A7800012840F0B480206801F0BAFF002800F097
:100A8800AE80206801F0B4FF870248BF2368206861
:100A980044BF4FF400125A6101F0AAFFC50248BFD3
:100AA8002368206844BF4FF480125A6101F0A0FF08
:100AB800400148BF2368206844BF4FF080625A61F4
:100AC80001F096FF810748BF2368206844BF0222CF
:100AD8005A6101F08DFF820010D5D6F8403423F01A
:100AE8002E03C6F84034204604F00EF80121206891
:100AF80001F086FF23684FF000525A61206801F028
:100B080077FFC30142D52568D5F840340493D5F85A
:100B180040340593059B23F02E030593049B9F0700
:100B28000DD5049BD80706D5AB6923F00053AB61FC
:100B3800204603F0E5FF059B43F002030593049B61
:100B4800190719D5059B43F008030593049B5A0719
:100B580050D5A169022945D1049B206803F4C0231C
:100B6800B3F5802F18BF012101F04AFF204603F09A
:100B7800D0FF204603F0C4FF049B9B0642BF059BA1
:100B880043F020030593059BC5F84034206801F025
:100B98002FFF070705D5204603F0AEFF236808227C
:100BA8005A61206801F024FF850112D5206802F0FF
:100BB80086F84FF0000A019006F5A06828274FF044
:100BC8000209D346A3689A4523D323684FF00072DD
:100BD8005A61206801F00CFFC30600F1208207B0BB
:100BE800BDE8F08FE368012B04BF4EF66022C5F81C
:100BF8000424BBE7204603F090FFD5F84034226870
:100C080023F02E03C5F84034936943F000539361F1
:100C1800B2E7019A0AF00F0322FA03F3D80740F16A
:100C28008A80D8F80030206813F4004F5FFA8AF5FC
:100C380000F004816A0100F5A063D618B16849077D
:100C480013D50421B160F16841F00201F160B16887
:100C5800890542D5F368206843F00203F36029460A
:100C680002F032F84FF40073C7E0B168890602D584
:100C78002021B160EBE7B168090715D5F168039346
:100C880041F00201F16007FB05414FF0050E81F8C4
:100C98005DE01021B1600821B1602946029202F09E
:100CA80013F8029A039BD2E7B1684905CFD5F168DA
:100CB800039341F00201F1602946029202F004F820
:100CC8001021B16007FB0541082081F85D004FF451
:100CD8008061B160039B029AB9E7B168C8073DD546
:100CE800216949B107FB054E3069DEF84810C0F3A9
:100CF8001200091ACEF84C1007FB054E01208EF899
:100D08005D00CEF858B0B0609EF83F1011F0FD0FAE
:100D180016D1F368206843F00203F360294601F016
:100D2800D3FF1023B36007FB054595F8503083F0D7
:100D3800010385F850300AF1010A08F1200841E75B
:100D48000329F0D1D15841F00051D1508EF85C0000
:100D580002462946204603F0DBFEE4E7B16889072E
:100D680036D5F16807FB054021F00201F16090F8E3
:100D78005D1001290CD180F85C1007FB0543C6F80B
:100D8800089093F85C202946204603F0C1FED2E77C
:100D98000529F0D0062901D0082914D107FB0541FF
:100DA800886D01300328886583BF0420C1F858B0D6
:100DB80081F85C0081F85C90D15821F0804141F0C5
:100DC8000041D150D9E70329D7D180F85C90F3E7E7
:100DD800B16811F0800112D0F368206843F0020373
:100DE800F36007FB054329469A6D01329A6506228E
:100DF80083F85D2001F068FF8023B3609BE7B36848
:100E0800DA0698D507FB054292F83F30032B0AD142
:100E18009165F368206843F00203F360294601F006
:100E280053FF1023E9E713F0FD03FAD19365236913
:100E3800002BF6D1032382F85D30EAE7690100F55B
:100E4800A0628E18B36813F0040E06D00423B360B2
:100E5800F36843F00203F3606DE7B36813F020030F
:100E680014D02023B36007FB054393F83D20012AE3
:100E78007FF461AF83F83DE083F85C90F36843F05A
:100E88000203F360294601F01FFF54E7D6F808E093
:100E98001EF0400F11D007FB0542042182F85D10B7
:100EA800012182F83D109365F36843F00203F36073
:100EB800294601F009FF40239FE7B36813F4007E39
:100EC80005D0F36843F00203F3602946C8E6B36827
:100ED800DB0711D5F26807FB054342F00202C3F8AD
:100EE80058E02946F260029301F0EEFE029B0122CF
:100EF800B26083F85D201EE7B3681B070ED5082390
:100F0800B360F36843F00203F360294601F0DCFEA6
:100F180007FB0545052385F85D300CE7B368DB065C
:100F280015D507FB0543032283F85D2093F83D2080
:100F3800C3F858B02AB993F83C2012B9012283F8B3
:100F48003D20F36843F00203F360294667E7B3687E
:100F58001B060CD5F36843F00203F360294607FB30
:100F6800054501F0B1FE062385F85D3044E7B36816
:100F78005B050FD5F36843F00203F360294601F0DF
:100F8800A3FE1023B3604FF48063B36007FB0545ED
:100F98000823C0E7B36898077FF5CDAEF36807FB71
:100FA800054023F00203F36090F85D30012B0ED169
:100FB80080F85C3090F83F30023B012B3FF6DDAE05
:100FC80090F8513083F0010380F85130D5E6032BB7
:100FD80002D180F85C90D0E6042BFAD0052B02D120
:100FE80080F85C30C9E6062B02D0082B7FF4C5AE2A
:100FF80007FB0540836D0133032B836584BF0423FE
:1010080080F85C308B5888BFC0F858B023F0804314
:1010180043F0004398BF80F85C908B50ADE626689B
:10102800B36923F01003B361356AC5F34342022A5A
:1010380029D1C5F30A18B8F1000F24D005F00F051F
:10104800282707FB0547796CE9B14246304601F08D
:10105800C1FC7B6C43447B64FB6C4344FB6406F536
:10106800A0666B019A1911690A4A0A405AB19A593D
:1010780022F0804242F000429A5197F8503083F0B3
:10108800010387F850302268936943F01003936195
:10109800A5E500BF0000F81F38B590F8B832012B5D
:1010A80004460DD0012580F8B852006801F038FCDC
:1010B8002946206801F0DEFC002084F8B80238BD1B
:1010C800022038BD90F8B832012B10B5044609D07B
:1010D800012380F8B832006801F00CFF002084F882
:1010E800B80210BD022010BD006801F0A5BC28237D
:1010F80003FB010191F85C007047282303FB010101
:10110800C86C7047006801F050BD006801F042BD2E
:1011180070B5044608B9012070BD90F83D3003F061
:10112800FF021BB980F83C2002F044FE242384F817
:101138003D3023681A6822F001021A601A6842F4E6
:1011480000421A601A6822F400421A6000F034FD66
:101158006568414B9D424DD8404B9842DBD9226887
:101168003F495368B0FBF1F123F03F030B43536051
:10117800136A23F03F03013119431162D169364BD9
:1011880021F44F419D4221F0FF0100F1FF3048D882
:101198006D00B0FBF5F00130C0F30B03042B38BF32
:1011A80004230B43D3611168206AE36921F0C0016D
:1011B80003430B4313609168E068236921F40341FA
:1011C800034321F0FF010B439360D168A069636971
:1011D80021F0FF0103430B43D360136843F001037D
:1011E800136000202023206484F83D30206384F8B5
:1011F8003E0070BD1B4B98428DD92268184E53682B
:10120800B0FBF6F623F03F0333435360136A4FF401
:101218009671714323F03F034FF47A76B1FBF6F1F0
:10122800A9E7A36853B905EB4503B0FBF3F0431CEA
:10123800C3F30B036BB143F40043B2E719236B43C9
:10124800B0FBF3F0431CC3F30B0313B143F4404367
:10125800A7E70123A5E700BFA08601007F841E0041
:1012680040420F00FF083D00F8B50446002841D071
:1012780090F8413003F0FF022BB9424B80F8402030
:10128800436302F0EDFD0221226884F84110D3691E
:1012980023F47B6323F00F03D361636911628B42EC
:1012A80031D0E368002BA3680CBF1025202501204E
:1012B800202B98BF6D0000F037FD23696169B3F5F5
:1012C800007F1BD1E3680A22B3B1AB00B0FBF3F394
:1012D80053430A22B3FBF1F30533B3FBF2F303F0F4
:1012E800010212025B08991EFD290ED9636C43F0B6
:1012F800100363640120F8BDEB00E7E70A23B0FBA5
:10130800F5F04343E5E70022EDE71343226921683E
:101318006668E568A069DFF87CE013430B62A368A0
:10132800CF6946EA030242F400622A43024307EA0D
:101338000E073A43CA61226A012A1DD1124A626322
:10134800124F134AB94218BF4FF040222B43D169BC
:1013580001EA0E01D16102211162D76943F40063E9
:10136800034336F4007143EA07030CBF4FF480715E
:1013780000219BB20B43D36100200123606484F8F1
:101388004130F8BDA7130008A51400080038004034
:101398000034004040F0FFFF7047704770471FB5AA
:1013A80003689A68019290F84120042A044636D1CD
:1013B800019AD10717D55A68520614D5C26AD96856
:1013C80022F8021BC262428E013A92B24286428ED3
:1013D80092B242B95A6822F060025A60012380F83A
:1013E8004130FFF7DAFF019B590618D523685A6880
:1013F800920614D55A6822F060025A6000220292BE
:10140800DA6802929B680293029B012384F84130B8
:10141800636C43F0020363642046FFF7BFFF94F850
:101428004130032B36D1019B9B0719D5226853689D
:10143800180615D5636A33F8021BD1606362638DA1
:10144800013B9BB26385638D9BB24BB9536823F014
:10145800A0035360012384F841302046FFF79CFF26
:10146800019B190716D523685A68920612D55A683F
:1014780022F0A0025A60002203929B680393039B08
:10148800012384F84130636C43F00403636420460D
:10149800FFF784FF04B010BD7047000010B5026864
:1014A8008B49936886B0044600938A4B8A4218BFDA
:1014B8004FF040239968019151680291596803914E
:1014C800416831F4007140F09080009B99071AD56B
:1014D800029B1B0617D5436A991C1B884162D3607F
:1014E800438D013B9BB24385438D9BB25BB95368E7
:1014F80023F0A0035360438E9BB223B9012380F8E5
:101508004130FFF7C9FF019BD80722D5039B590635
:101518001FD5E26A20686E49931CE3626D4B8842CE
:1015280018BF4FF04023D9681180628E013A92B2F9
:101538006286628E92B262B95A6822F060025A607C
:10154800638D9BB22BB9012384F841302046FFF705
:10155800A3FF019B5A0622D5039B9B061FD5236830
:101568005B495C4A8B4218BF4FF0402220465168C5
:1015780021F0600151605A6822F0A0025A600022EE
:101588000492DA6804929B680493049B012384F80C
:101598004130636C43F002036364FFF7FFFE009B76
:1015A800180720D5029B99061DD5236848495A6813
:1015B80022F0A0025A60474A8B4218BF4FF04022DF
:1015C800516821F060015160002205929B680593E3
:1015D800059B012384F84130636C43F00403636482
:1015E8002046FFF7DBFE06B010BD019A92071AD518
:1015F800039A110617D5426A911C12884162DA6073
:10160800428D013A92B24285428D92B25AB95A68D5
:1016180022F0A0025A60438E9BB223B9012380F8BE
:101628004130FFF739FF009BDA071CD5029B5B06A8
:1016380019D5E36A9A1CE2622268D1681980638E20
:10164800013B9BB26386638E9BB263B9536823F0F8
:1016580060035360638D9BB22BB9012384F841303A
:101668002046FFF719FF009B58061BD5029B9906D9
:1016780018D522681649536823F060035360154B48
:101688008A4218BF4FF0402320465A6822F0A00231
:101698005A60012384F84130636C43F002036364A9
:1016A800FFF77CFE019B1A079DD5039B9B069AD5E5
:1016B80022680749074B8A4218BF4FF040235968F0
:1016C80021F0A0015960536823F06003536080E75C
:1016D80000380040003400402DE9F341044608B9C1
:1016E80001203FE00368DD0710D4236898075AD427
:1016F80023681A0700F19C8023685B0700F1BA8011
:10170800A069002840F01B8100202BE0A44B9A68B8
:1017180002F00C02042A07D09A6802F00C02082A88
:101728000AD15B68590207D59D4B1B689A03DCD523
:101738006368002BD9D1D3E76368994DB3F5803F2F
:1017480013D12B6843F480332B60FEF70BFF944DC5
:1017580006462B689B03C8D4FEF704FF801B642849
:10176800F7D9032002B0BDE8F081B3F5A02F04D16A
:101778002B6843F480232B60E3E72A6822F4803245
:101788002A602A6822F480222A60002BDDD1FEF725
:10179800E9FE06462B689F03A7D5FEF7E3FE801BEC
:1017A8006428F7D9DDE77E4B9A6812F00C0F07D052
:1017B8009A6802F00C02082A11D15B685E020ED406
:1017C800774B1A68950702D5E268012A88D11A680A
:1017D800216922F0F80242EAC1021A6088E7E26849
:1017E800704BB2B101221A60FEF7BCFE6C4D064682
:1017F8002B68980707D52B68226923F0F80343EA7A
:10180800C2032B6074E7FEF7ADFE801B0228EFD9F8
:10181800A7E71A60FEF7A6FE614D06462B689907F2
:101828007FF566AFFEF79EFE801B0228F6D998E783
:1018380062695D4B7AB101221A60FEF793FE584D3A
:1018480006466B6F9F073FF557AFFEF78BFE801B71
:101858000228F6D985E71A60FEF784FE504D064641
:101868006B6F98077FF548AFFEF77CFE801B022858
:10187800F6D976E74A4B1A6C12F0805228D10192B9
:101888001A6C42F080521A641B6C03F08053019367
:10189800019B0126454D2B68D9051BD5A368404DF2
:1018A800012B27D12B6F43F001032B67FEF75AFE5C
:1018B8003B4D074641F288382B6F9B0739D5002EE0
:1018C8003FF41EAF364A136C23F08053136417E7B6
:1018D8000026DFE72B6843F480732B60FEF742FE97
:1018E80007462B68DA05D9D4FEF73CFEC01B022850
:1018F800F7D936E7052B04D12B6F43F004032B6788
:10190800D0E72A6F22F001022A672A6F22F0040228
:101918002A67002BCAD1FEF725FE41F28838074610
:101928002B6F9807CBD5FEF71DFEC01B4045F7D996
:1019380017E7FEF717FEC01B4045BDD911E7184D44
:10194800AB6803F00C03082B47D0194E002302287C
:10195800336035D1FEF706FE07462B68990129D476
:10196800226AE3691343626A43EA8213E26A43EA3A
:101978000263A26A0A4C5208013A43EA02436B60C6
:1019880001233360FEF7EEFD054623689A013FF513
:10199800BBAEFEF7E7FD401B0228F6D9E1E600BF23
:1019A8000038024000004742800E47420070004065
:1019B80060004742FEF7D6FDC01B0228CDD9D0E60D
:1019C800FEF7D0FD04462B689B017FF59DAEFEF720
:1019D800C9FD001B0228F6D9C3E601283FF4C2AEB0
:1019E800A868E36900F480029A427FF479AE226A1B
:1019F80000F03F0393427FF473AE626A47F6C07308
:101A0800034093427FF46CAEA26A00F440339342E1
:101A18007FF466AEE36A00F07060C01A18BF012058
:101A2800A0E600BF134908B58B6803F00C03042B2C
:101A380003D0082B03D0104808BD104808BD4A68D9
:101A48004B68496813F4800314BF0C480A48C1F373
:101A5800881118BF002302F03F02A1FB0001FEF726
:101A6800AFFB044B5B68C3F3014301335B00B0FB7E
:101A7800F3F008BD003802400024F40000127A0098
:101A88002DE9F0410D46044610B90120BDE8F0816A
:101A9800444B1A6802F00F028A4229D321688F0743
:101AA8002ED4C80741D43F4B1A6802F00F02954262
:101AB80067D3226851076DD4130707D53A4A2169BD
:101AC800936823F4604343EAC1039360FFF7AAFFD6
:101AD800354B364A9B68C3F30313D35CD840344B69
:101AE8001860344B1868FEF7F3FC0020BDE8F0815D
:101AF800CAB21A701B6803F00F039942C5D1CDE72B
:101B0800294B11F0040F1EBF9A6842F4E0529A6004
:101B18000E0742BF9A6842F460429A609A68A068C9
:101B280022F0F00202439A60BBE762681E4B012A6A
:101B38001DD11B6813F4003FA7D01B4EB36823F0D8
:101B480003031343B360FEF70DFD41F288380746DF
:101B5800B368626803F00C03B3EB820FA3D0FEF7FF
:101B680001FDC01B4045F3D90320BDE8F081911E5B
:101B780001291B6802D813F0007FDDE713F0020F7C
:101B8800DAE7EAB21A701B6803F00F039D427FF48C
:101B98007CAF8EE70449E0688B6823F4E053034385
:101BA8008B6089E7003C024000380240384F00084B
:101BB8004400002004000020044B054A9B68C3F33E
:101BC8008223D35C034A1068D8407047003802402B
:101BD800484F000844000020044B054A9B68C3F3A3
:101BE8004233D35C034A1068D8407047003802403B
:101BF800484F000844000020036813F0050FF7B5AC
:101C0800054605D1286810F0020028D103B0F0BDC0
:101C1800414C424E00232360FEF7A4FC074633687C
:101C28001B0115D4AB686A681B0743EA8213C6F820
:101C3800843001232360FEF795FC384C0646236860
:101C48001801DFD4FEF78EFC801B0228F7D904E0C8
:101C5800FEF788FCC01B0228E1D90320D6E7002341
:101C680001932E4B2E4C1A6C42F080521A641B6C56
:101C780003F080530193019B236843F4807323602E
:101C8800FEF770FC06462368D9051BD5234C236F45
:101C980013F440731CD1EB6803F44072B2F5407F33
:101CA8001E4A34D1916823F0704021F4F81120F4D1
:101CB800407001439160116FC3F30B030B4313672B
:101CC8000020A3E7FEF74EFC801B0228DBD9C4E7FF
:101CD800EA6802F440729342DDD0236F114A012171
:101CE800116023F44073002111602367236FDA0722
:101CF800D1D5FEF737FC41F288370646236F9B079C
:101D0800C9D4FEF72FFC801BB842F7D9A5E7916824
:101D180021F4F811CEE700BF6800474200380240BE
:101D280000700040400E4742012820D1114B9A68AC
:101D380012F4000204D0012A0F4818BF002070478F
:101D48005A680C4958685302D1F884204CBF0B4B91
:101D58000B4B00F03F00B3FBF0F3D1F88400C2F363
:101D680088125343C0F30270B3FBF0F070470020B1
:101D7800704700BF003802400080BB0000127A00A4
:101D88000024F40010B50446002836D000238362EE
:101D980090F8513003F0FF021BB980F8502002F090
:101DA8000BFB2168A068A269022384F851300B68F4
:101DB80023F040030B6063680343E0680343206932
:101DC800034360690343E0690343206A0343A06A4D
:101DD800034302F4007003430B60120C636A02F0C1
:101DE80004021A434A60CB6923F40063CB610020E4
:101DF8000123606584F8513010BD012010BD00003A
:101E0800036A23F001030362036A70B544688269B8
:101E18000D6822F073022A438D6823F002032B43D6
:101E28000E4DA84202D00E4EB04210D1CE6823F01B
:101E380008033343A84223F0040302D0084DA84204
:101E480005D14D698E6924F4407435432C434460B0
:101E580082614A684263036270BD00BF00000140AE
:101E680000040140036A23F480730362036A70B5B7
:101E78004468C2690D6822F073022A438D6823F40E
:101E8800007343EA0523114DA84203D005F5806588
:101E9800A84214D1CD6823F4006343EA05230B4D0F
:101EA800A84223F4806303D005F58065A84206D1D3
:101EB8004D698E6924F44054354344EA051444605E
:101EC800C2614A68C263036270BD00BF000001407E
:101ED800036A23F480530362036A30B54468C26915
:101EE8000D6822F4E64242EA05228D6823F4005385
:101EF80043EA0533084DA84203D005F58065A8429A
:101F080004D14D6924F4804444EA85144460C261D4
:101F18004A680264036230BD000001407047000057
:101F2800304A0368904212D0B0F1804F0FD0A2F52A
:101F38007C4290420BD002F58062904207D002F5B5
:101F48008062904203D002F57842904219D14A68E3
:101F580023F070031343234A904229D0B0F1804FF5
:101F680026D0A2F57C42904222D002F580629042AF
:101F78001ED002F5806290421AD002F57842904253
:101F880016D0194A904213D002F5806290420FD0C1
:101F980002F5806290420BD0A2F59832904207D0A9
:101FA80002F58062904203D002F58062904203D12C
:101FB800CA6823F4407313434A6923F08003134328
:101FC80003608B68C3620B688362064B984203D038
:101FD80003F58063984201D10B69036301234361D0
:101FE800704700BF000001400040014010B50446A2
:101FF800A0B190F83D3003F0FF021BB980F83C20F7
:1020080002F070FA022384F83D302068211DFFF7A2
:1020180087FF012384F83D30002010BD012010BD4A
:1020280010B50446A0B190F83D3003F0FF021BB98B
:1020380080F83C20FFF772FF022384F83D302068C7
:10204800211DFFF76DFF012384F83D30002010BDEE
:10205800012010BD036A23F010030362036A70B500
:10206800446882690D6822F4E64242EA05228D68D6
:1020780023F0200343EA0513104DA84203D005F5C9
:102088008065A84214D1CD6823F0800343EA051384
:102098000A4DA84223F0400303D005F58065A84205
:1020A80006D14D698E6924F44064354344EA8504B9
:1020B800446082614A688263036270BD0000014027
:1020C80038B590F83C30012B04464FF0020025D07B
:1020D800012384F83C3084F83D000C2A18D8DFE846
:1020E80002F0071717171E1717172F171717400093
:1020F8002068FFF785FE236809699A6942F008029B
:102108009A619A6922F004029A619A690A439A616B
:102118000123002084F83D3084F83C0038BD206855
:10212800FFF798FF236809699A6942F400629A6187
:102138009A6922F480629A619A6942EA0122E6E782
:102148002068FFF78FFE23680969DA6942F0080200
:10215800DA61DA6922F00402DA61DA690A43DA61DB
:10216800D6E72068FFF7B4FE23680969DA6942F404
:102178000062DA61DA6922F48062DA61DA6942EAD5
:102188000122ECE710B584680A4324F47F4442EA4C
:1021980003232343836010BD90F83C30012B70B5B6
:1021A80004464FF0020019D084F83D00206801234E
:1021B80084F83C30836823F47F4323F077038360FB
:1021C8000B68402B65D015D8102B0CD007D853B10D
:1021D8000123002084F83D3084F83C0070BD202B9A
:1021E80001D0302BF4D1826843F0070322F070024B
:1021F80013431AE0602B34D019D8502BE8D14A6821
:10220800CE68016A056A25F001050562836921F037
:102218000A0123F0F00343EA06130A4383610262CA
:10222800836823F0700343F057038360D0E7702B73
:102238000CD0B3F5005FCBD1CB684A688968FFF74B
:10224800A1FF2268936843F4804308E0CB684A689A
:102258008968FFF797FF2268936843F077039360D4
:10226800B6E74D68CE68016A21F010010162826903
:10227800036A22F4704223F0A00343EA051342EAFA
:10228800063282610362836823F0700343F06703B8
:10229800CBE74A68CE68016A056A25F00105056240
:1022A800836921F00A0123F0F00343EA06130A4385
:1022B80083610262836823F0700343F04703B4E745
:1022C800036A01F01F0110B501248C4023EA0403BE
:1022D8000362036A8A401A43026210BD10B50446BD
:1022E80001220068FFF7ECFF23680B4A93420ED0E7
:1022F80002F5806293420AD09A6802F00702062A21
:1023080003D01A6842F001021A60002010BD5A6C0E
:1023180042F400425A64EFE70000014090F83C3074
:10232800012B30B54FF0020335D080F83D300368FB
:102338000D685C6824F0700401222C4380F83C206E
:102348009A685C60154CA3421AD0B3F1804F17D03D
:10235800A4F57C44A34213D004F58064A3420FD0B3
:1023680004F58064A3420BD004F57844A34207D057
:1023780004F57054A34203D0A4F59434A34204D1C5
:10238800496822F080020A439A60012380F83D30B0
:10239800002380F83C30184630BD00BF00000140E3
:1023A80090F83C30012B1FD0CB688A6823F4407327
:1023B80013434A6823F4806313430A6823F40063D1
:1023C80013430A6923F4805313434A6923F40053DF
:1023D8001343CA6923F480431343026853640023F8
:1023E80080F83C3018467047022070470368DA6866
:1023F80022F49072DA605A6922F001025A612023AD
:1024080080F83A307047000038B50368C1681A6927
:10241800044622F440520A431A612569A268D96821
:10242800C0692A43656921F416412A4321F00C0149
:1024380002430A43DA605A69A16922F440720A43E6
:10244800B0F5004F5A61254A29D1934203D002F5CD
:102458008062934220D1FFF7BFFB6268256892181B
:102468004FF000034FF019015B41A0FB0101FDF79C
:10247800A7FE6421B0FBF1F401FB1403DB00323347
:10248800B3FBF1F303F007025B0002EB041203F461
:10249800F8731344AB6038BDFFF78EFBDDE793425A
:1024A80002D00F4A934216D1FFF796FB636825685E
:1024B80019219A00A0FB01019B0FFDF781FE642200
:1024C800B0FBF2F102FB11031B013233B3FBF2F351
:1024D80003EB0113DEE7FFF76FFBE7E700100140AE
:1024E80000140140F8B504460E4617461D462168FB
:1024F8000B6836EA030301D10020F8BD6B1CF7D046
:1025080095B92368DA6822F4D072DA605A6922F041
:1025180001025A61202384F8393084F83A300023C4
:1025280084F838300320F8BDFEF71CF8C01B85423C
:10253800DDD2E6E710B5044640B390F8393003F031
:10254800FF021BB980F8382002F0DEF92268242344
:1025580084F83930D36823F40053D3602046FFF75A
:1025680053FF23681A6922F490421A615A6922F0CB
:102578002A025A61DA6842F40052DA600020202305
:10258800E06384F8393084F83A3010BD012010BD7A
:102598002DE9F8431F4690F83930202B04460D46A4
:1025A800904651D100294CD0002A4AD090F83830B2
:1025B800012B49D0012380F838304FF0000921233E
:1025C800C0F83C9080F83930FDF7CCFFA4F824809F
:1025D8000646A4F8268084F83890E38C9BB25BB951
:1025E8003B46324640212046FFF77CFFA0B9202316
:1025F80084F83930BDE8F883E38C013B9BB2E3846F
:10260800A368B3F5805F32463B464FF08001204611
:102618000ED1FFF767FF10B10320BDE8F8832B88C0
:102628002268C3F308035360236943B90235D4E72A
:10263800FFF758FF0028EFD123682A785A60013540
:10264800CBE70120BDE8F8830220BDE8F88390F8C5
:102658003A30202B20D1E9B1E2B190F83830012B83
:102668001AD0C285828500232222C36380F83A20CB
:1026780002688162D16880F8383041F48071D16095
:10268800516941F001015161D16841F02001D160E7
:10269800184670470120704702207047704790F82D
:1026A8003A30222B10B536D1836801690268B3F538
:1026B800805F836A23D15268E9B9C2F3080223F81C
:1026C800022B8362C48D013CA4B2C4858CB9036813
:1026D800DA6822F02002DA60DA6822F48072DA60BE
:1026E8005A6922F001025A61202380F83A3001F039
:1026F8002FFE002010BDD2B223F8012BE1E721B94B
:10270800591C526881621A70DCE75268591C816250
:1027180002F07F02F7E7022010BD704703681A68CD
:10272800D96870B5160704465D6907D196065CD569
:102738008D065AD5BDE87040FFF7B1BF15F0010509
:1027480002D111F4907F50D0D00705D5CB0542BFF8
:10275800E36B43F00103E363560704D51DB1E36B54
:1027680043F00203E363900704D51DB1E36B43F024
:102778000403E363130706D58E0600D41DB1E36B8B
:1027880043F00803E363E36B002B66D0950604D59A
:10279800880602D52046FFF782FF23685D69E26B51
:1027A8001107204602D415F040051AD0FFF71EFE87
:1027B80023685A69520610D55A69606B22F04002A4
:1027C8005A6150B1254B0365FDF750FF002844D0EE
:1027D800606BBDE87040036D18472046FFF79DFF0A
:1027E80070BDFFF79AFFE56370BD160627D50D0685
:1027F80025D594F83920212A2FD1A268B2F5805F17
:10280800226A17D11188C1F308015960216979B981
:1028180002322262E28C013A92B2E284EAB9DA68C0
:1028280022F08002DA60DA6842F04002DA6070BDB5
:102838000132EEE7511C216212785A60EAE750062D
:102848000BD54A0609D5DA6822F04002DA6020235F
:1028580084F839302046FFF721FF70BD6928000849
:1028680008B5806B0023C385C384FFF756FF08BDF6
:102878000A4B013B01D1032070470269002AF8DAAC
:102888000369064A43F001030361013AF3D003697F
:1028980013F00103F9D11846704700BF410D03003A
:1028A80084B038B505AD85E80E000A9B012B0446B7
:1028B80025D1836B23F480338363C36823F48403B3
:1028C80023F04003C360C36823F44013C360119B23
:1028D800012B02BFC36843F48013C360FFF7C8FF2E
:1028E800089B012B07D1A36843F00603A360A368E4
:1028F80043F02003A360BDE8384004B07047C368C4
:1029080043F04003C360FFF7B3FF0E9B23B9A36BEB
:1029180043F48033A363E3E7A36B23F48033F9E73D
:10292800836843F00103836000207047836823F0C5
:10293800010383600020704708B5C368012923F0AC
:10294800C043C36008D1C36843F00053C36032205A
:10295800FDF70EFE002008BD19B9C36843F0804397
:10296800F4E7012008BD0000890141F02001064A72
:102978000161013A05D0036913F02003F9D1184623
:1029880070470320704700BF410D03001023064A1B
:102998000361013A05D0036913F01003F9D1184611
:1029A80070470320704700BF410D030010B59DF824
:1029B80008404CB9033300EB023023F0030300F561
:1029C80080500B44994201D1002010BD51F8042BCE
:1029D8000260F7E7033222F003020A4400F5805050
:1029E800914201D108467047036841F8043BF7E774
:1029F8004269806910407047406900F001007047E3
:102A0800D0F8003423F0030310B5C0F80034D0F830
:102A1800004401F003032343012900F58062C0F854
:102A2800003404D14BF680335360002010BD0229D6
:102A3800FBD141F27073F7E737B500250195D0F85F
:102A480040340193019B23F02E030193019B43F42F
:102A580080730446C0F840346420FDF789FD019B6B
:102A680023F48073C4F840340A20FDF781FD28461A
:102A780003B030BD82B000230193D0F840340193F5
:102A8800019B23F02E030193019BDA0406D401294C
:102A980002BF019B43F48053C0F84034019BDB0420
:102AA80005D521B9019B23F48053C0F84034002098
:102AB80002B0704784B038B5044605A880E80E0017
:102AC8000023C4F8003EA36B43F40013A363A36B75
:102AD80023F40023A363A36B23F48023A363E36B92
:102AE800DA053FD5079B032BD4F800343CD143F0DB
:102AF8000403C4F8003410212046FFF735FF2046B0
:102B0800FFF744FF0023069904F5A0624FF0FF3059
:102B18001D468B422BD101212046FFF7ABFFC82071
:102B2800FDF726FD0023A3614FF0FF336361E36BDC
:102B3800DB0521D54FF40073636203F18073A36250
:102B4800114BC4F80031089B1BB9A36943F010036B
:102B5800A361A2690D4B1343A361BDE8384000206F
:102B680004B07047D4F8003423F00403C1E7906040
:102B78000133D5602032CCE78023636203F5C003BC
:102B8800A362034BDDE700BF0003E000080020A3B9
:102B9800E000400082B000230193D0F84034019354
:102BA8000198C0F3414002B0704700F5806080682A
:102BB80080B270472DE9F04100EB411707F5A0649A
:102BC8009DF81C6005464FF0FF30A0604FFA82F870
:102BD80005F5806C01F00F0E032E6CD8DFE806F0C7
:102BE8000261024C40F29D41B8F1000FE16003DA46
:102BF800E16841F4807105E0E96BC90542D5E168F7
:102C080041F06001E1600020DCF81840012101FA80
:102C18000EF12143CCF81810A969B8F1000F41F062
:102C28000071A961B4BF4FF400440024BDF82050DE
:102C38009DF818109B0503F0FE53C5F30A05D20250
:102C480002F4F0422B431343B20402F44022022957
:102C580043EA02030CBF4FF40031002123430B4326
:102C6800032EC7F8003528D1D7F8003543F00053B4
:102C7800C7F80035BDE8F08140F29D61B8F1000F5A
:102C8800E160B5DBDCF81800012101FA0EF101431F
:102C9800CCF81810A969002041F00071A961044618
:102CA800C4E740F22521B8F1000FE160EADAE168F3
:102CB80041F4C071A6E70120A6E7BDE8F08100F560
:102CC8008060406980B2704700EB411101F5A06255
:102CD800D1F8003513F4802FD1F8003543F0804344
:102CE800C1F800351ED1C36A13F47F0FD1F800353F
:102CF80037D123F00043C1F80035D1F8003543F04F
:102D08000043C1F80035D1F8003523F40043C1F879
:102D1800003540F2E933013B02D011680029FADBA3
:102D280000207047D0F8103413F47F0FD1F8003525
:102D380017D123F00043C1F80035D1F8003543F02E
:102D48000043C1F80035D1F8003523F40043C1F839
:102D5800003540F2E933013BE2D011680029FADB83
:102D6800DEE743F00043C1F80035D9E700EB411135
:102D7800064AC1F81025D1F8003523F0804343F006
:102D88000043C1F800350020704700BF00000880EC
:102D98002DE9F341C36BDB05164604464A7817D57F
:102DA8000D79ADB94EB94B79012B11D11146FFF709
:102DB800DDFF002002B0BDE8F081012E08D100EB54
:102DC8004213D3F80C0520F06000C3F80C054D71D0
:102DD8000869002866D00B8901381844B0FBF3F065
:102DE80080B2B0F5807F03D91B020B614FF480706D
:102DF800CF7817B10B8943430B6191F80AE00B694F
:102E08004FEA4E7EC3F312080EF0C04E4EEA080E8B
:102E1800DFF8DC8004EB421508EAC0404EEA000007
:102E2800C5F8100516B1C868C5F8140504F5806E14
:102E3800DEF80800D5F800C52CF0005CC5F800C520
:102E4800C043D5F800C5400700F0005040EA0C0028
:102E5800C5F800052548D5F800C5C0F800C0D0F869
:102E680000C02CF0804CC0F800C0D0F800C0DFB122
:102E78004CF4004CC0F800C0D0F800C04CF0004C36
:102E8800C0F800C00068C5F80005002E91D1002FD9
:102E98008FD1002B8DD0C879032813D8DFE800F034
:102EA800071A071A0120A3E72CF4004CE2E7E06AAE
:102EB800DD1CC5F38F0580B2854203D9A06940F0B7
:102EC8002000A061002000909BB2C9682046FFF74F
:102ED8006DFD6EE7DEF81000DD1CC5F38F0580B2CE
:102EE8008542EFD9A06940F08060EAE7C800002079
:102EF8000000F81F836823F0010310B51021044671
:102F08008360FFF731FD2046FFF740FD04F5A0631D
:102F180004F5E0601A46116821F0802141F08041F3
:102F280042F8201B9042F6D10020196821F4004194
:102F380041F0404119600130B0F57A7F02D8196834
:102F48000029F8DB20339A42EFD14FF0FF33C4F861
:102F580014346361A36843F00103A360002010BD2B
:102F68000020704738B5D0F87833DC6921780546F9
:102F780039B100F017FE2178284600F02FFE002313
:102F88002370217B41B1284600F00CFE217B2846A6
:102F980000F024FE00232373617B41B1284600F032
:102FA80001FE617B284600F019FE00236373D5F803
:102FB8007833D86928B101F0DFFED5F878330022DC
:102FC800DA61002038BDF0B5022285B00123114630
:102FD800054600F0B2F9FF28064602D1022005B0E6
:102FE800F0BD0146284600F09FF95020D5F87873C7
:102FF80001F0BAFE1A2303FB0656F86196F84A3325
:103008001A0642BF4370B6F84C33438104464178F0
:10301800284600F0CCFD014620706089029003200C
:10302800019095F81D0395F81C33627800902846A6
:1030380000F0A9FD00222178284601F026FE002391
:103048001A460A21284600F078F9FF28C6D01A2324
:1030580003FB005103FB005091F84A2390F85233C8
:10306800B1F84C1312F0800F0DBFA273E2736183A5
:10307800218313F0800F08BFA373B0F85423A17BFA
:1030880018BFE373284614BF6283228300F08FFDC4
:10309800E17B6073284600F08AFD2073208B029044
:1030A800022695F81D0395F81C33A27B617B0196D7
:1030B8000090284600F067FD608B029095F81D038C
:1030C80095F81C33E27B217B019600900026284668
:1030D80000F059FD3246617B84F84C60284601F0C7
:1030E800D4FD3246217B284601F0CFFD304676E7F5
:1030F80038B5D0F87833D969A123037421234374F0
:103108000722002343828382C2824031044600F0B2
:10311800C9FA054620B9D4F8C83302212046984791
:10312800284638BD704770477047D0F8783373B574
:10313800DC6994F84C300546042B3DD8DFE803F0F1
:1031480003061742A600002002B070BD2123A16C1F
:103158000374202343740722002343828382C2829C
:1031680000F0A0FA50BB022384F84C3024E0A123DD
:103178000374212343740722002343828382C2827B
:1031880004F1400100F08EFAC0B9626CA36C84F8B7
:103198004C0002F0FF115A6802F0FF1291420BD165
:1031A80094F845105A79914206D1226C1B689A42CC
:1031B80002D12846FFF7B8FF0120C5E70128FBD058
:1031C8000423D1E794F84D10012921D002292ED0EB
:1031D800D5F87833DE6996F84E30032B45D0042BAA
:1031E800EAD1317B284601F03FFD0128E4D1317B4B
:1031F800284601F0F5FCB36A984240D0728B9042A1
:103208003DD91B1AB362336A18443062032333E092
:10321800606A228B637B0091904298BF82B2E16919
:10322800284600F089FC022384F84D30D0E7617B02
:1032380001F01AFD012815D1636A228B934283BFDE
:103248009B1A6362E36900238ABF9B186362E36188
:10325800636A0BB10123E7E784F84D302846FFF78E
:1032680061FFB5E70228B3D1F4E7337B728B316A8B
:10327800284600F078FC042386F84E309CE70023AB
:1032880086F84E302846FFF74EFF95E7002100F0FC
:103298000DFC002890D184F84C008DE700F5607390
:1032A80000F56F72002143F8041B9342FBD100F52F
:1032B8008E7200F54771002302F8013B9142FBD161
:1032C80001224021037043708270C0F8BC3302763B
:1032D8008171437680F81C3380F81D2300207047E5
:1032E80038B50D46044680B1002380F8C023C0F8E5
:1032F8007833C0F87C33FFF7D1FF0DB1C4F8C85359
:10330800204601F00FFC002038BD022038BD49B12D
:10331800D0F87C3333B90122C0F87C23C0F8741389
:10332800184670470220704790F838338B4286BFA2
:1033380080F8201300200220704770B5002490F810
:1033480043638E42E5B201D0FF290BD190F8446364
:10335800964201D0FF2A05D190F845639E4207D0D6
:10336800FF2B05D00134022C00F11A00E7D1FF250C
:10337800284670BD10B5044601F0FAFB012120462D
:1033880001F076FC002010BD30B587B002238DF81F
:10339800173090F81F33044633B9027822B1027807
:1033A800032A1CBF0322027022780B2A18D8DFE8F0
:1033B80012F00C001A001F00210117004F0007012E
:1033C800C600D000DA00E700180194F81E333BB1BC
:1033D8000123C820237001F067FC204601F0F2FBAE
:1033E800002007B030BD012BFAD102232370F7E784
:1033F800642001F059FC204601F0D6FB0523237018
:1034080084F81D030021204600F0D1FB8021607163
:10341800204600F0CCFBA27994F81C3320710146B9
:103428000292002594F81D230092019580222046DF
:1034380000F0A9FBA279029294F81D23009294F857
:103448001C33617901952A46204600F09CFBC7E7AA
:103458006378072BC4D8DFE803F004151E30384121
:103468004F5D0821204600F0FAF905460028B7D13B
:10347800012394F829236370217994F81C33A271ED
:103488000292CFE71221204600F0E9F90028A7D1DF
:1034980002236370A4E70121204600F0DDFA054607
:1034A80000289DD1022001F0FFFB03220123627056
:1034B80084F81C332179A279E2E70921204600F03B
:1034C80016FA00288CD10423E3E7B4F83613204613
:1034D80000F00DFA002883D10523DAE794F83013B9
:1034E80041B1FF2304F58E72204600F08EFA0028C1
:1034F8007FF476AF0623CCE794F8311341B1FF236C
:1035080004F58E72204600F080FA00287FF468AF38
:103518000723BEE794F8321341B1FF2304F58E72F6
:10352800204600F072FA00287FF45AAF002384F88E
:10353800203394F83333012B09D0072356E7D4F806
:10354800C833002B3FF44CAF01212046984708238D
:103558004CE794F83913204600F08CFA00287FF4E1
:103568003FAF092342E794F83B339B0606D5012178
:10357800204600F08DFA00287FF432AF0A2335E7A1
:10358800D4F87C33002B3FF42BAF0023C4F87833F6
:10359800D4F8743394F843231979914208BFC4F8D6
:1035A8007833D4F87833D3B19B6820469847B0B9BC
:1035B800062323700321D4F8C833204698470FE721
:1035C800D4F878335BB11B69204698478DF817000B
:1035D8009DF81730002B7FF403AF0B2306E70D236C
:1035E80004E7D4F87833002B3FF4FAAE5B69204641
:1035F8009847F5E62046FFF751FED4F87833002BBC
:103608003FF4EEAEDB68204698470023C4F87833D1
:10361800E6E6C0F8BC137047D0F8BC230132C0F806
:10362800BC2302780B2A04D1D0F878330BB19B69FC
:1036380018477047012380F81F337047002380F82C
:103648001F337047027808B54AB9D0F8C833012249
:1036580080F81E230BB104219847002008BD90F87C
:103668001F23012A04BF02220270F6E710B50446A0
:1036780001F08CFA2179204600F0B0FA61792046F1
:1036880000F0ACFA002384F81E33D4F8C83313B121
:10369800052120469847204601F06AFA0323237043
:1036A800002010BD13B504468078012803D00228F5
:1036B80008D0012004E00223A160A2812076A37033
:1036C80002B010BD237E013B01210A2BF1D8DFE8AF
:1036D80003F0060F2B36404C646F808C950062799E
:1036E80004F11001204600F0EFF902232376E0E709
:1036F8006179204601F0B8FA01280FD1E28A94F9DD
:1037080010302AB1002B01DA0323EFE70523EDE798
:10371800002B01DA0923E9E70723E7E7042801D0AA
:103728000228C6D10B23E1E7D4F8BC33E381A28990
:103738002379A168204600F0EFF90423D6E7217920
:10374800204601F091FA0128E4D0052815D0042874
:10375800E7E763790091A289A168204600F0C5F9DE
:10376800D4F8BC33E3810623C0E76179204601F031
:103778007BFA0128D0D0052805D10123A3700023A6
:10378800237603209CE70228C0D0042891D10B237C
:1037980023760123A370022092E7002223791146A1
:1037A800204600F0B9F9D4F8BC33E38108239DE73B
:1037B8002179204601F058FA012804D1012300207C
:1037C800A37020767CE70428ACD005287FF471AF7D
:1037D800D3E70022637900912046114600F085F96D
:1037E800D4F8BC33E3810A2380E76179204601F0ED
:1037F8003BFA0128E2D00228A9D18BE7637E013386
:10380800DBB2022B637606D8204601F0BFF901230C
:103818002376A3704DE7D4F8C8330621204698478D
:1038280000236376B5E730B48478BDF80850012CDE
:1038380010D161F07F04047402F47F44B4F5407F32
:1038480042824FF006010CBF40F209420022417447
:103858008282C5822A46194630BCFFF723BF37B596
:1038680000F58E730D4600914FF4807200210446D6
:10387800FFF7D9FFC8BB94F81C3184F8223394F8B9
:103888001D3184F82333B4F81E31A4F8243394F896
:10389800203184F8263394F8213184F8273394F8BA
:1038A800223184F82833082D94F8233184F82933F9
:1038B8001BD9B4F82431A4F82A33B4F82631A4F873
:1038C8002C33B4F82831A4F82E3394F82A3184F82C
:1038D800303394F82B3184F8313394F82C3184F850
:1038E800323394F82D3184F8333303B030BD2DE9E9
:1038F800F74300F11C050E4600912B464FF4007269
:1039080000210446FFF78FFF48BB237F84F8343338
:10391800637F84F8353394F8203084F8383394F88A
:10392800213084F8393394F8223084F83A3394F803
:103938002330B4F81EE084F83B33092E94F8243081
:10394800A4F836E384F83C3309D927462B460646C3
:1039580009224FF01A0C022E01D0964502D803B066
:10396800BDE8F08319780B440A445978042992B2C7
:10397800F1D1197887F83E13597887F83F13997869
:1039880087F84013D97887F84113197987F84213D3
:10399800597987F84313997987F84413D97987F8BF
:1039A8004513197A87F846130CFB06F8002197F897
:1039B80042538D4202D801361A37CCE79645FAD9D8
:1039C8001D782B442A445D78052D92B2EFD14D1C09
:1039D80008EBC501214493F8009081F8409393F8CF
:1039E800019081F8419393F8029081F8429393F8FB
:1039F800039081F84393B3F80490A1F8449393F8A3
:103A0800069081F84693E9B2D1E7F7B500F58E75CF
:103A180014461F46009341F440722B460021064687
:103A2800FFF701FF78B996F81D31032B0BD196F8F3
:103A38001C31023BBB4228BF3B469BB20246934225
:103A480003D80023237003B0F0BDA9180232897887
:103A580004F8011B92B2F2E78378012B06D1002308
:103A680005220374427441828382C3820022114674
:103A7800FFF718BE8378012B06D1002309220374AF
:103A8800427441828382C38200221146FFF70ABE34
:103A98008378012B06D100230322037442744182E8
:103AA8008382C38200221146FFF7FCBD8378012B75
:103AB80006D1022243740023027443828182C382A6
:103AC80000221146FFF7EEBD30B585B0002415463B
:103AD8000823029301910394009423462246294621
:103AE80001F0A8F8204605B030BD30B590F81D5358
:103AF80085B0002D1C469DF82030029218BF002387
:103B0800039301230093002301911A46214601F0F3
:103B180091F8002005B030BD30B585B000241D46B1
:103B2800029201220191039400922346294601F052
:103B380081F8204605B030BD30B590F81D5385B0EA
:103B4800002D1C469DF82030029218BF00230393D5
:103B580001230191009300220223214601F06AF813
:103B6800002005B030BD30B585B01D460024029256
:103B780001220191039400920223294601F05AF888
:103B8800204605B030BD1FB5BDF8204002949DF811
:103B98001C4001949DF81840009401F025F800207D
:103BA80004B010BD08B501F037F8002008BD30B5E5
:103BB800002300F5607454F8045B2D04DAB207D4CE
:103BC800E03341F4004140F8231092B2D0B230BD46
:103BD80001330B2BEFD14FF6FF72F7E70A299FBF8E
:103BE80000EB8100D0F88033C3F30E03C0F88033B4
:103BF800002070472DE9F0418CB01422002107A85D
:103C080001F0C2F80024544B01941A6BDFF860816C
:103C1800524E534F42F010021A631A6B02F0100210
:103C28000192019A02941A6B42F004021A631A6B09
:103C380002F004020292029A03941A6B42F0800284
:103C48001A631A6B02F080020392039A04941A6BA7
:103C580042F001021A631A6B02F001020492049AFC
:103C680005941A6B42F002021A631A6B02F0020200
:103C78000592059A06941A6B42F008021A631B6BA8
:103C880003F008030693224640460821069BFCF7EA
:103C9800DFFD012211463046FCF7DAFD22463046A8
:103CA8000821FCF7D5FD224638464FF21001FCF7F3
:103CB800CFFD0125082307A94046079308950994D5
:103CC8000A94FCF7E5FC092307A9304607934FF04F
:103CD8000208089509940A94FCF7DAFC214B08932A
:103CE80007A93046CDF81C80A6F580660994FCF734
:103CF800CFFC1D4B1D48089307A907950994FCF7AD
:103D0800C7FC042307A93046079308940994FCF7D5
:103D1800BFFC4FF48063079307A9052330460B9334
:103D2800CDF8208009940A94FCF7B2FC4FF21003F6
:103D380007A938460793089509940A94FCF7A8FC44
:103D4800202307A93846079308940994FCF7A0FC98
:103D58000CB0BDE8F08100BF003802400008024006
:103D6800000C024000003110000012100000024058
:103D78000010024008B50C480C4BDFF834E04FF453
:103D8800804280E8084000238360C3600261436189
:103D98008361C3610362FDF7BBF918B1BDE8084050
:103DA80000F0E6BA08BD00BFF00000200054004053
:103DB800A086010030B5044689B01422002103A86A
:103DC80000F0E2FF2268144B9A4222D1134C1448A7
:103DD80000250195236B43F002032363236B03F053
:103DE80002030193019B4FF410730393122304936E
:103DF8000123059303A904230793FCF749FC0295C3
:103E0800236C43F400132364236C03F4001302931C
:103E1800029B09B030BD00BF00540040003802408A
:103E2800000402400B4808B54FF400720A4B0360C7
:103E3800426000230261094A8360C3604261836172
:103E4800C3610362FDF710FA18B1BDE8084000F03D
:103E58008FBA08BD44010020003C004000770100F3
:103E680070B5044688B01422002103A800F08CFF26
:103E780022681D4B9A4235D103F5FE330024009485
:103E88001A6C1A4842F400421A641A6C02F400428E
:103E98000092009A01941A6B42F001021A631A6B9D
:103EA80002F001020192019A02941A6B42F0040294
:103EB8001A631B6B03F004030293029B0226102370
:103EC800062503A9039304960795FCF7E1FB4FF435
:103ED800A45303A9064803930496059406940795EA
:103EE800FCF7D6FB08B070BD003C00400000024063
:103EF80000080240084B1A68084B9B68C3F5243336
:103F0800C2F31502A8203F33B3FBF0F34FF47A70E5
:103F180000FB0230704700BFDC00002010E000E02A
:103F280008B50E4B1B6913F0020305D0A3B1FFF7C8
:103F3800E1FF0B4B186008BDFFF7DCFF084B1B685F
:103F4800C01A3A23B0FBF3F0064B18601B68032B2A
:103F58009EBF054B01221A7008BD00BF0008024031
:103F6800D8000020A4010020CC0000205E4A51683F
:103F7800012938B5134630D11069012813D190684A
:103F8800012843D15948006801283FD158490B6995
:103F9800013B9F2B0B61DCBF022313610A20BDE8A4
:103FA8003840FCF7E5BA022830D19268012A2DD1B1
:103FB8004E4A1268012A29D14D4A1169B1F5C87FC4
:103FC80004DA50680131013050601161494A1278B1
:103FD8000AB102225A606420E1E7022913D1146968
:103FE800022C10D1906801280DD1404800680128A2
:103FF80009D13F498B68013BC72B8B60CEDC5060F1
:1040080010619460CAE71A69012A1ED198680228CB
:104018001BD1364A1268012A17D1354A1169B1F500
:10402800C87FDCBF013111615168C8BF18617729A9
:1040380008DC02225A60642301222F492F48FEF728
:10404800A7FAABE701395160A8E7022902D01A693B
:10405800022A14D19A68022A11D1244A1268022A23
:104068000DD123490A69B2F5967FB7BF012202F143
:10407800FF325A601A61B4BF9A600A618EE701295B
:1040880030D11A69012A2DD19A68012A0ED1174A0E
:10409800116802290AD116498B680133B3F5D77F15
:1040A8008B607FF77BAF0323136077E79D68012D53
:1040B80018D10E4A1268032A14D10D4841680469C0
:1040C8000139013C7729416004613FF767AF00215E
:1040D800596019619960074B40F6B8301970FCF7C0
:1040E80047FAA8E738BD00BF2C000020D000002008
:1040F8008C010020CC00002040000020400300205C
:1041080070B5302298B00DEB0200002100F03CFEA3
:104118001422002107A800F037FE0021102203A86E
:1041280000F032FE0025214B01951A6C42F08052B6
:104138001A641B6C03F080530193019B1C4B02957E
:104148001A6842F480421A601B6803F480430293A1
:10415800029B4FF480330D934FF48003139308238D
:1041680014934FF4A8730224012615930CA807236F
:1041780017930C9612941694FDF7AEFA0F23079333
:104188004FF4A0530A9305214FF4805307A80B93CB
:1041980008940995FDF774FCC02303A803960493BB
:1041A8000594FDF729FD18B070BD00BF0038024026
:1041B80000700040554B564C80B54FF41B724FF4BD
:1041C800AF764FF4C875FA271A605D609F60DE60AD
:1041D8001D61504BE6604FF4D7709860A06040F2C4
:1041E800762540F2122640F24E2083E860001A61DC
:1041F800D860494B226022614FF4BE721A60D72200
:104208009A606E22DA607821A02259601A61616092
:10421800FCF782F9FFF774FFFFF7ECFCFFF7AAFD44
:10422800FFF700FE00F0A6F800F07CFA00F0E2FAD2
:1042380000F0F4FB00F00AFA00F02EFB00F048FB57
:10424800002211460720FCF7B9F90720FCF7EAF924
:10425800002211462720FCF7B1F92720FCF7E2F9E4
:1042680001222E492E482D4D2E4EFEF7F0F904213D
:104278002D48FEF733F808212B48FEF72FF80021C8
:104288002A48FEF72BF804212848FEF727F80021D2
:104298002748FEF723F82F462A78A2B1012A05D12C
:1042A800244964232448FEF773F90AE0022A03D15B
:1042B800642301222149F5E7032A1CD10122204B5E
:1042C8001A6000233B701F4B1A7802B101220821A3
:1042D8003046FCF7BDFA1C4B62689A63A268DA6341
:1042E80003F5A053E2685A6322699A63FFF73EFE1A
:1042F80000F0B4FBD0E7042A01D10222DFE7053A37
:10430800012ADED8642301221049CBE7D40100201A
:104318008C010020AC010020C0010020D400002046
:10432800000300200008024040020020C0020020D4
:1043380080020020280000204003002029000020DF
:10434800D0000020CC0000200004004041000020E4
:104358000268044B9A4204D1012203490348FEF73C
:1043680076B9704700480040D400002000030020C0
:104378007047000008B50E480E4B4FF4827E80E867
:10438800084000238360C360036143614FF40072F7
:10439800C3610362436283620A238261C362FDF7D9
:1043A800F1FC18B1BDE80840FFF7E2BF08BD00BF47
:1043B800E80100200030014010B5044688B01422FE
:1043C800002103A800F0E0FC2268134B9A4220D198
:1043D80003F58433002101915A6C104842F480524D
:1043E8005A645A6C02F480520192019A02911A6B33
:1043F80042F001021A631B6B03F001030293029B54
:10440800E02303930223049303A905230793FCF7EE
:104418003FF908B010BD00BF003001400000024065
:1044280007B50E4B002100915A6C42F480425A6441
:104438005A6C02F480420092009A01911A6C42F080
:1044480080521A641B6C03F0805301930720019B70
:10445800FCF7A2F803B05DF804FB00BF0038024087
:104468007047FEE7FEE7FEE7FEE7704770477047D4
:10447800FCF76CB80220FCF7F1B900000148FEF720
:104488004DB900BF000300200148FCF7E9BA00BF9E
:104498004C07002008B50A4B1968024609B90949B2
:1044A80019601868694602448A4206D900F032FC4D
:1044B8000C2303604FF0FF3008BD1A6008BD00BF31
:1044C800E0000020140A0020054BD3F8882042F4AD
:1044D8007002C3F888204FF000629A60704700BFEE
:1044E80000ED00E00368194A934284B00DD100231F
:1044F8000193174B5A6C42F001025A645B6C03F04B
:1045080001030193019B04B07047124A93420CD1F6
:10451800002302930E4B1A6C42F002021A641B6CC1
:1045280003F002030293029BEDE70B4A9342EAD1A0
:1045380000230393064B1A6C42F040021A641B6C6A
:1045480003F040030393039BDDE700BF0000014035
:1045580000380240000400400018004030B5142222
:104568008BB0044600210DEB020000F00DFC23681F
:104578002F4A934218D1002301932E4B2E481A6BD1
:1045880042F001021A631B6B03F001030193019BC4
:104598004FF480730593022306930123099305A919
:1045A800FCF776F80BB030BD244A934227D1214B53
:1045B8002348002502951A6B42F002021A631A6B0F
:1045C80002F002020292029A03951A6B42F0040268
:1045D8001A631B6B03F0040303930224039B0694E2
:1045E800212305A905930994FCF752F84023059364
:1045F800069407950895099405A91248D0E7124A28
:104608009342CFD1002304930A4B0D481A6B42F012
:1046180002021A631B6B03F002030493049B4FF41A
:1046280040430593022306930923099305A9B7E795
:104638000000014000380240000002400004004031
:1046480000040240000802400018004010B596B06F
:104658001022002103A8002400F096FB1C2221460A
:104668000DEB02000194029400F08EFB20222146FB
:104678000EA800F089FB2948294A8460A72380E80E
:104688000C004CF24F33C360046144618461FDF750
:10469800ADFC08B1FFF76CFE4FF4805303A91F4827
:1046A8000393FDF779FD08B1FFF762FE1B48FDF79C
:1046B800B7FC08B1FFF75CFE002301A91748019376
:1046C8000293FDF72BFE08B1FFF752FE002460238A
:1046D800079322460F2307A91048089309940A94C0
:1046E8000B940C940D94FDF7EBFC08B1FFF740FE1A
:1046F8004FF400530EA909480E940F941094119486
:10470800129413931594FDF74BFE08B1FFF730FE92
:104718000248FFF723FF16B010BD00BF800200203B
:104728000000014010B58EB01022002103A800F04F
:104738002BFB00241C220DEB02002146019402945D
:1047480000F022FB29482A4A846040F24F1380E88F
:104758000C0042F20F73C36004618461FDF746FCEC
:1047680008B1FFF705FE4FF4805303A91F480393D0
:10477800FDF712FD08B1FFF7FBFD1C48FDF750FCE3
:1047880008B1FFF7F5FD002301A91848019302932A
:10479800FDF7C4FD08B1FFF7EBFD60230022079386
:1047A80007A94FF41B731148089309920B92FDF760
:1047B80087FC08B1FFF7DCFD7823042207A90B4822
:1047C8000893FDF77DFC08B1FFF7D2FD4FF4D273D3
:1047D800082207A905480893FDF772FC08B1FFF7FE
:1047E800C7FD0248FFF7BAFE0EB010BD4002002018
:1047F8000004004000B58DB01022002101A800F08F
:10480800C3FA1C22002105A800F0BEFA204821495D
:1048180040F24F1380E80A0042F20F7200238360CF
:10482800C26003618361FDF7E1FB08B1FFF7A0FDFA
:104838004FF4805301A916480193FDF7ADFC08B168
:10484800FFF796FD1248FDF7EBFB08B1FFF790FD67
:1048580060230022059305A94FF4AF730C48069313
:1048680007920992FDF72CFC08B1FFF781FD4FF480
:104878001B73042205A906480693FDF721FC08B11D
:10488800FFF776FD0248FFF769FE0DB05DF804FBFF
:10489800C00200200018004008B50B480B4B4FF42D
:1048A800165E80E808400C2200238360C360036121
:1048B80042618361C361FDF73DFE18B1BDE8084060
:1048C800FFF756BD08BD00BF40030020004400406C
:1048D80008B50B480B4B4FF4E13E80E808400C222A
:1048E80000238360C360036142618361C361FDF794
:1048F80021FE18B1BDE80840FFF73ABD08BD00BF6A
:104908000003002000480040F0B514228BB0044694
:1049180000210DEB020000F037FA2368304A934279
:1049280023D1304B3048002100911A6C42F40032F8
:104938001A641A6C02F400320092009A01911A6B00
:1049480042F001021A631B6B03F001030193019B00
:104958000C23059302230693032308930723099343
:1049680005A9FBF795FE0BB0F0BD204A9342FAD19A
:104978001C4B1F48002402941A6C42F480221A64CB
:104988001A6C02F480220292029A03941A6B42F083
:1049980002021A631A6B02F002020392039A049449
:1049A8001A6B42F008021A631B6B03F008030493A6
:1049B800049B02274FF400630326072505A90593E6
:1049C800069708960995FBF763FE4FF480730593E5
:1049D800069707940896099505A90648C1E700BFF8
:1049E80000440040003802400000024000480040F7
:1049F80000040240000C024004290AD0052904D012
:104A0800022905D1044B197070470322024B1A7012
:104A180070470122FAE700BFE400002008B5012230
:104A28000B490C48FEF75CFC08B1FFF7A1FC0A49EA
:104A38000848FEF76CFC08B1FFF79AFC0548FEF73A
:104A480099FC18B1BDE80840FFF792BC08BD00BF4B
:104A5800014A000880030020080000200148FEF7F2
:104A680093BC00BF8003002030B5044689B01422EF
:104A7800002103A800F088F92368B3F1A04F35D1CD
:104A88001B4C1C4800250195236B43F0010323634D
:104A9800236B03F001030193019B03A94FF40073F7
:104AA8000393FBF7F5FD4FF4E053039302230493BC
:104AB80003A90A230F48079305950695FBF7E8FD18
:104AC800636B43F0800363630295636C43F4804334
:104AD8006364636C03F48043029343202A462946A7
:104AE800029BFBF76BFD4320FBF79CFD09B030BD33
:104AF8000038024000000240D0F8C002FEF78CBD2A
:104B0800D0F8C002FEF79EBDD0F8C002FEF7AEBDD9
:104B18007047D0F8C002FEF78DBDD0F8C002FEF78E
:104B28008DBD000010B590F8C033012B04461BD191
:104B38000E48C4F8C4034FF0A04202600822826005
:104B4800C36002220023C0F8C04203618261C361CE
:104B5800FBF7DAFE08B1FFF70BFC0448FCF7D2FAC2
:104B680001462046FEF755FD002010BD4C070020E9
:104B780008B5D0F8C403FCF78FFA03289ABF024B94
:104B8800185C022008BD00BF534F000808B5D0F8D4
:104B9800C403FCF797FA03289ABF024B185C02205B
:104BA80008BD00BF534F000808B5D0F8C403FCF790
:104BB800ACFA02289ABF024B185C012008BD00BF5E
:104BC800504F000808B5D0F8C403FCF78DFA032845
:104BD8009ABF024B185C022008BD00BF534F000863
:104BE800D0F8C403FCF789BA1FB5BDF82040029479
:104BF8009DF81C4001949DF818400094D0F8C40317
:104C0800FBF738FE03289ABF024B185C022004B059
:104C180010BD00BF534F000808B5D0F8C403FBF718
:104C280061FE03289ABF024B185C022008BD00BF32
:104C3800534F00081FB59DF824400394BDF8204049
:104C48000294079C01949DF818400094D0F8C4037E
:104C5800FBF7A4FE03289ABF024B185C022004B09D
:104C680010BD00BF534F0008D0F8C403FCF73FBA8B
:104C780008B590F8C033012B02D1084600F016F8A9
:104C8800C820FBF775FC002008BDD0F8C403282312
:104C980003FB010191F83B301BB181F85020002043
:104CA800704781F85120FAE7FBF762BCB0FA80F24E
:104CB800520901210148FBF7CBBD00BF00080240A3
:104CC800DFF834D0002103E00C4B5B58435004312B
:104CD8000B480C4B42189A42F6D30B4A02E00023C9
:104CE80042F8043B094B9A42F9D3FFF7EDFB00F079
:104CF80017F8FFF75FFA704700000220684F0008B6
:104D080000000020AC000020AC000020140A0020A5
:104D1800FEE70000014B1868704700BF48000020FC
:104D280070B50D4E0D4CA41BA4100025A54209D149
:104D38000B4E0C4C00F0EEF8A41BA4100025A54265
:104D480005D170BD56F8253098470135EEE756F87D
:104D5800253098470135F2E7604F0008604F00089A
:104D6800604F0008644F0008024B0146186800F0C5
:104D780061B800BF48000020024B0146186800F0E7
:104D88000BB800BF4800002002440346934200D1FC
:104D9800704703F8011BF9E738B50546002945D0E7
:104DA80051F8043C0C1F002BB8BFE41800F0B0F811
:104DB8001F4A1368104633B9636014602846BDE87B
:104DC800384000F0A6B8A3420CD921686218934273
:104DD80004BF1A685B68636004BF521822600460ED
:104DE800ECE713465A680AB1A242FAD9196858186A
:104DF800A0420BD120680144581882421960DDD1C5
:104E0800106852685A6001441960D7E702D90C2328
:104E18002B60D3E7206821188A4204BF11685268C2
:104E2800626004BF091821605C60C7E738BD00BF35
:104E3800E800002070B5CD1C25F0030508350C2DC1
:104E480038BF0C25002D064601DBA94203D90C23E7
:104E58003360002070BD00F05BF8234A14682146D7
:104E680091B9224C23681BB9304600F041F8206004
:104E78002946304600F03CF8431C26D10C23336009
:104E8800304600F046F8E4E70B685B1B1AD40B2B9E
:104E98000FD90B60CD50CC18304600F03AF804F129
:104EA8000B00231D20F00700C31A1BD05A42E25002
:104EB80070BD8C420DBF63684B686360136018BF98
:104EC8000C46E9E70C464968CAE7C41C24F0030409
:104ED800A04205D0211A304600F00AF80130CDD0A2
:104EE8002560D9E770BD00BFE8000020EC00002075
:104EF80038B5064C0023054608462360FFF7CAFA72
:104F0800431C02D1236803B12B6038BD100A00206E
:104F180070477047F8B500BFF8BC08BC9E4670479C
:0C4F2800F8B500BFF8BC08BC9E467047FE
:104F34004344430000000000000000000102030499
:104F44000607080900000000010203040001020032
:044F54000201020054
:084F5800A0B2FF7F0100000080
:044F6000AD01000897
:044F640089010008B7
:104F68000100000010000000344F0008020000009B
:104F7800CF2F00086D2F0008F930000833310008E2
:104F8800692F000800000000010200000100000075
:104F98000100000001000000010000000100000005
:104FA800030500000024F4004C000020000000006D
:104FB80000000000000000000000000000000000E9
:104FC80000000000000000000000000000000000D9
:104FD80000000000000000000000000000000000C9
:104FE80000000000000000000000000000000000B9
:104FF80000000000000000000000000000000000A9
:0C5008000000000000000000000000009C
:0400000508004CC9DA
:00000001FF
